:100000000C943E000C9450000C94A0000C945000F2
:100010000C9450000C9450000C9450000C94500020
:100020000C9450000C9450000C9450000C94500010
:100030000C9450000C9450000C9450000C94500000
:100040000C9450000C9450000C9450000C945000F0
:100050000C9450000C9450000C9450000C945000E0
:100060000C9450000C9450000C9450000C945000D0
:100070000C9450000C9450000C94500011241FBE9E
:10008000CFEFD8E0DEBFCDBF21E0A0E0B1E001C0FE
:100090001D92A330B207E1F70E9403010C943F01C7
:1000A0000C9400004A9B09C08FE19EE40197F1F790
:1000B00000C000004A9903C0089580E0089581E0DF
:1000C000089582E082B9089581E082B9089512B856
:1000D0000895CF93DF93D1E0C2E00E9452008823BD
:1000E00079F0D2B98FE39CE90197F1F700C00000E5
:1000F000C2B98FE39CE90197F1F700C00000EDCF92
:10010000DF91CF910895F8948FEF81B91AB892E0FA
:100110009DBBE0E8F0E080818D7F80838081887ED8
:100120008083E1E8F0E081E080838BEF8083E89AD0
:10013000E9E6F0E0908380818C6080837894089574
:100140001F920F920FB60F9211242F933F934F934C
:100150005F936F937F938F939F93AF93BF93EF932F
:10016000FF9321E0209302018FE19EE40197F1F7D4
:1001700000C0000080910001909101018230910542
:10018000C1F034F4009761F08130910531F129C05C
:1001900084309105D1F0B4F085309105F1F021C0A3
:1001A00081E090E090930101809300010E9469003A
:1001B00018C083E090E0909301018093000182E0F9
:1001C00082B90FC083E090E008C085E090E0909392
:1001D00001018093000122B904C090930101809332
:1001E0000001E09AFF91EF91BF91AF919F918F91A4
:1001F0007F916F915F914F913F912F910F900FBE23
:100200000F901F9018950E94830082E082B944E00D
:1002100050E022E062E070E031E080910201811163
:10022000FCCF80910001909101018230910511F184
:1002300054F40097A1F0019781F770930101609346
:10024000000132B9EACF84309105A1F06CF0059736
:1002500021F7109201011092000122B9DECF109215
:10026000010110920001D9CF509301014093000188
:1002700012B8D3CF9093010180930001CECFF894B0
:02028000FFCFAE
:00000001FF
